:020000040800F2
:1000000000280020E9140008410E0008470E0008EF
:100010004D0E0008530E0008590E000800000000A5
:100020000000000000000000000000005F0E00085B
:100030006B0E000800000000770E0008830E000819
:100040003115000831150008311500083115000878
:100050003115000831150008311500083115000868
:100060003115000831150008311500083115000858
:100070003115000831150008311500083115000848
:100080003115000831150008311500083115000838
:100090003115000831150008311500083115000828
:1000A0003115000831150008311500083115000818
:1000B000910E0008311500080000000031150008FD
:1000C0003115000800000000000000003115000894
:1000D0000000000031150008311500080000000084
:1000E0003115000831150008311500080000000026
:1000F0000000000000000000000000000000000000
:0C01000000000000000000005FF808F1A3
:10010C0010B5054C237833B9044B13B10448AFF345
:10011C0000800123237010BD80000020000000002F
:10012C00582B000808B5034B1BB103490348AFF328
:10013C00008008BD0000000084000020582B00083F
:10014C0080B400AF024B1B681846BD4680BC70479C
:10015C00A400002080B400AF024B1B681846BD46BB
:10016C0080BC7047A800002080B400AF024B1B6815
:10017C001846BD4680BC7047AC00002080B400AF70
:10018C00024B1B681846BD4680BC7047BC00002063
:10019C0080B500AF754B1B78022B00F0D880022B7A
:1001AC0000F3E280002B03D0012B00F0BC80DBE0DD
:1001BC00002000F089FB0346002B00F0B4806B4B51
:1001CC0001221A706A4B1B680133694A1360684B31
:1001DC001B68042B02DD664B01221A60644B1B6802
:1001EC00012B02D1634B01221A60614B1B68022B5D
:1001FC002FD1604B00221A6063226321002000F093
:10020C00DFFE63226321002001F018F85A4B1B68B3
:10021C005A4A82FB03129210DB17D31ADBB219462F
:10022C00022000F085FB544B1A68544B83FB0213DD
:10023C009910D317C91A0B469B000B445B00D11ABB
:10024C00CBB21946032000F073FB4B4B1B684C4A96
:10025C001360474B1B68032B2CD1632200216320B6
:10026C0000F0AEFE63220021632000F0E7FF454B57
:10027C001B68424A82FB03129210DB17D31ADBB2C3
:10028C001946022000F054FB3E4B1A683B4B83FB93
:10029C0002139910D317C91A0B469B000B445B0031
:1002AC00D11ACBB21946032000F042FB354B1B6828
:1002BC00354A13602E4B1B68042B2CD10022632172
:1002CC00632000F07DFE00226321632000F0B6FF66
:1002DC002E4B1B68294A82FB03129210DB17D31A90
:1002EC00DBB21946022000F023FB284B1A68234B83
:1002FC0083FB02139910D317C91A0B469B000B44AE
:10030C005B00D11ACBB21946032000F011FB1F4B36
:10031C001B681F4A1360164B1B68DBB21946012081
:10032C0000F006FB20E0002000F0CEFA0346002B84
:10033C0003D10E4B00221A7013E0002000F0DEFAFD
:10034C000346002B0DD0094B02221A7009E0002045
:10035C0000F0BAFA0346002B05D1044B00221A70A8
:10036C0001E000BF00E000BF00BF80BD9C0000208A
:10037C00A0000020BC000020A40000206766666678
:10038C00B0000020A8000020B4000020AC00002029
:10039C00B800002080B500AF654B1B78022B00F035
:1003AC00B580022B00F3C180002B03D0012B00F091
:1003BC009980BAE0012000F087FA0346002B00F088
:1003CC00AF805B4B01221A705A4B1B68022B2AD14F
:1003DC00594B1B680133584A1360574B1B68632BEE
:1003EC0002DD554B01221A60534B1A68534B83FBA9
:1003FC0002139910D317C91A0B469B000B445B00D0
:10040C00D11ACBB21946032000F092FA4A4B1B6862
:10041C004A4A82FB03129210DB17D31ADBB219463D
:10042C00022000F085FA434B1B68032B2AD1444B66
:10043C001B680133424A1360414B1B68632B02DD7E
:10044C003F4B01221A603E4B1A683C4B83FB021354
:10045C009910D317C91A0B469B000B445B00D11A99
:10046C00CBB21946032000F063FA354B1B68334AB4
:10047C0082FB03129210DB17D31ADBB2194602204F
:10048C0000F056FA2B4B1B68042B49D12D4B1B68E3
:10049C0001332C4A13602B4B1B68632B02DD294B59
:1004AC0001221A60274B1A68244B83FB0213991004
:1004BC00D317C91A0B469B000B445B00D11ACBB265
:1004CC001946032000F034FA1E4B1B681B4A82FBB2
:1004DC0003129210DB17D31ADBB21946022000F07C
:1004EC0027FA1DE0012000F0EFF90346002B03D1A1
:1004FC000F4B00221A7015E0012000F0FFF90346A3
:10050C00002B0FD00A4B02221A700BE0012000F0D6
:10051C00DBF90346002B07D1054B00221A7003E0D0
:10052C0000BF02E000BF00E000BF00BF80BD00BF05
:10053C009D000020A0000020B000002067666666C9
:10054C00B4000020B800002080B500AF6B4B1B78C6
:10055C00022B00F0C180022B00F3CD80002B03D0C6
:10056C00012B00F0A580C6E0022000F0ADF9034697
:10057C00002B00F0BB80614B01221A70604B1B6892
:10058C00022B2ED15F4B1B68002B08D05D4B1B68D8
:10059C00013B5C4A13605B4B1B68002B02DC594B24
:1005AC0063221A60574B1A68574B83FB021399103E
:1005BC00D317C91A0B469B000B445B00D11ACBB264
:1005CC001946032000F0B4F94E4B1B684E4A82FBCF
:1005DC0003129210DB17D31ADBB21946022000F07B
:1005EC00A7F9474B1B68032B2ED1484B1B68002BDC
:1005FC0008D0464B1B68013B444A1360434B1B68B5
:10060C00002B02DC414B63221A60404B1A683E4BB4
:10061C0083FB02139910D317C91A0B469B000B448A
:10062C005B00D11ACBB21946032000F081F9374B8D
:10063C001B68354A82FB03129210DB17D31ADBB20C
:10064C001946022000F074F92D4B1B68042B4DD178
:10065C002F4B1B68002B08D02D4B1B68013B2C4AE1
:10066C0013602B4B1B68002B02DC294B63221A6096
:10067C00274B1A68244B83FB02139910D317C91A02
:10068C000B469B000B445B00D11ACBB219460320DE
:10069C0000F04EF91E4B1B681B4A82FB0312921092
:1006AC00DB17D31ADBB21946022000F041F91DE02A
:1006BC00022000F009F90346002B03D10F4B002256
:1006CC001A7015E0022000F019F90346002B0FD028
:1006DC000A4B02221A700BE0022000F0F5F80346D8
:1006EC00002B07D1054B00221A7003E000BF02E07B
:1006FC0000BF00E000BF00BF80BD00BF9E00002017
:10070C00A0000020B000002067666666B4000020E0
:10071C00B800002080B500AF284B1B78022B3CD0D2
:10072C00022B49DC002B02D0012B22D044E0032009
:10073C0000F0CAF80346002B39D0204B01221A7066
:10074C001F4B1B68022B03D11E4B1B681E4A1360E8
:10075C001B4B1B68032B03D11C4B1B681C4A1360DF
:10076C00174B1B68042B22D11A4B1B681A4A1360B7
:10077C001DE0032000F0A8F80346002B03D10F4B1B
:10078C0000221A7015E0032000F0B8F80346002B85
:10079C000FD00A4B02221A700BE0032000F094F8E1
:1007AC000346002B07D1054B00221A7003E000BF53
:1007BC0002E000BF00E000BF00BF80BD9F00002032
:1007CC00A0000020B0000020A4000020B4000020F5
:1007DC00A8000020B8000020AC00002080B582B03A
:1007EC0000AF00237B6058E0304A7B6813441978D3
:1007FC002F4A7B6813440A461A702E4A7B6852F8BB
:10080C0023202D497B6851F823309BB219461046A2
:10081C0001F074F903461946244A7B6813440A46CE
:10082C001A70224A7B6813441A7821497B680B445E
:10083C001B789A422ED11D4A7B68134419781F4AA3
:10084C007B6813440A461A701C4A7B6813441B7855
:10085C00002B15D11A4A7B6852F82330632B09DC24
:10086C00174A7B6852F823305A1C15497B6841F8AB
:10087C0023200FE0134A7B68012142F8231009E082
:10088C000F4A7B68002142F823100E4A7B68002136
:10089C0042F823107B6801337B607B68032BA3DD5C
:1008AC0000BF00BF0837BD4680BD00BFC40000209C
:1008BC00C80000201000002000000020C000002014
:1008CC00DC000020CC00002080B483B000AF786046
:1008DC007B68032B01DD002308E0074A7B68134487
:1008EC001B78002B0CBF01230023DBB218460C37FE
:1008FC00BD4680BC704700BFC000002080B483B0F0
:10090C0000AF78607B68032B01DD002308E0074A09
:10091C007B6852F82330012B0CBF01230023DBB280
:10092C0018460C37BD4680BC704700BFCC00002079
:10093C0080B483B000AF03460A46FB711346BB710B
:10094C00FB79032B06D8BB79092B03D8FB79044917
:10095C00BA79CA5400BF0C37BD4680BC704700BF83
:10096C00EC00002080B582B000AF0346FB71FB7930
:10097C00032B0BD8FB79074A52F82300FB79064A64
:10098C0032F813300122194601F0CFF800BF0837B6
:10099C00BD4680BD340000202C00002080B584B002
:1009AC0000AF0346FB710023FB7323E0FA79FB7B5A
:1009BC0042FA03F303F00103002B0CD0FB7B114A2A
:1009CC0052F82300FB7B104A32F8133000221946F0
:1009DC0001F0ABF80BE0FB7B0A4A52F82300FB7BDF
:1009EC00094A32F813300122194601F09EF8FB7BBC
:1009FC000133FB73FB7B062BD8D900BF00BF10372C
:100A0C00BD4680BD540000204400002080B582B05B
:100A1C0000AF0346FB71FB79032B0CD8FB79084A1A
:100A2C0052F82300FB79074A32F81330002219469A
:100A3C0001F07BF800E000BF0837BD4680BD00BF69
:100A4C00340000202C00002080B500AF114B1B7827
:100A5C001846FFF787FF0F4B1B7801335A4203F000
:100A6C00030302F0030258BF5342DAB2094B1A7067
:100A7C00084B1B781A46084B9B5C1A46074B9B5C31
:100A8C001846FFF78BFF034B1B781846FFF7BEFF8A
:100A9C0000BF80BDF0000020EC00002020000020F2
:100AAC0080B500AF00F040FD00F07EF800F004F9D6
:100ABC0000F0B6F8364B00221A60364B00221A6052
:100ACC00354B00221A60354B00221A6000F050FAA8
:100ADC0000210020FFF72CFF00210120FFF728FF49
:100AEC0000210220FFF724FF00210320FFF720FF45
:100AFC002B4801F06BFC0A21002000F0D3F90A21ED
:100B0C00012000F0CFF9FFF743FBFFF743FCFFF7A1
:100B1C001BFDFFF7FFFDFFF731FB03461C4A13607B
:100B2C001B4B1B68012B28D1FFF70AFB0346194A04
:100B3C001360FFF70FFB0346174A1360FFF714FB14
:100B4C000346164A1360174B5B68012B15D1114BEA
:100B5C001B68114A1168114A1268184600F030FAE5
:100B6C000C4B1B680C4A11680C4A1268184600F0B2
:100B7C0065FBC821012000F095F90A4B1B68012B7D
:100B8C00C1D1FFF761FF3221002000F08BF9BAE7E9
:100B9C00BC000020A4000020A8000020AC00002015
:100BAC00140100200801002080B590B000AF07F1BF
:100BBC00180328220021184601F0C0FF3B1D00221B
:100BCC001A605A609A60DA601A610223BB610123D1
:100BDC00BB621023FB6200237B6307F118031846EA
:100BEC0000F0BCFF0346002B01D000F0C7F80F2328
:100BFC007B600023BB600023FB6000233B61002370
:100C0C007B613B1D0021184601F028FA0346002B9E
:100C1C0001D000F0B3F800BF4037BD4680BD0000E6
:100C2C0080B586B000AF07F1080300221A605A6045
:100C3C009A60DA603B4600221A605A601D4B4FF0F6
:100C4C0080421A601B4B41F63F725A60194B0022CE
:100C5C009A60184B0922DA60164B00221A61154B68
:100C6C0000229A61134801F061FB0346002B01D06E
:100C7C0000F084F84FF48053BB6007F10803194669
:100C8C000C4801F0F7FC0346002B01D000F076F87D
:100C9C0000233B6000237B603B461946054801F06E
:100CAC00BFFE0346002B01D000F068F800BF1837D8
:100CBC00BD4680BD1401002080B586B000AF07F1A1
:100CCC00080300221A605A609A60DA60284B9B690C
:100CDC00274A43F004039361254B9B6903F00403FB
:100CEC007B607B68224B9B69214A43F0080393612C
:100CFC001F4B9B6903F008033B603B6800224FF4D9
:100D0C00FC611C4800F011FF00224FF6F0611A48FC
:100D1C0000F00BFF0F23BB600023FB6000233B6143
:100D2C0007F108031946134800F06EFD4FF4FC63FD
:100D3C00BB600123FB6000233B6102237B6107F155
:100D4C00080319460B4800F05FFD4FF6F063BB60DB
:100D5C000123FB6000233B6102237B6107F1080345
:100D6C001946054800F050FD00BF1837BD4680BD40
:100D7C000010024000080140000C014080B400AF9C
:100D8C0072B600BFFEE7000080B485B000AF154B13
:100D9C009B69144A43F001039361124B9B6903F066
:100DAC000103BB60BB680F4BDB690E4A43F08053F9
:100DBC00D3610C4BDB6903F080537B607B680A4B7F
:100DCC005B68FB60FB6823F0E063FB60FB6843F04F
:100DDC008063FB60044AFB68536000BF1437BD4658
:100DEC0080BC7047001002400000014080B584B008
:100DFC0000AF78607B681B68B3F1804F13D10C4B4C
:100E0C00DB690B4A43F00103D361094BDB6903F047
:100E1C000103FB60FB68002200211C2000F0BDFCDC
:100E2C001C2000F0D6FC00BF1037BD4680BD00BFB3
:100E3C000010024080B400AFFEE780B400AFFEE7C4
:100E4C0080B400AFFEE780B400AFFEE780B400AF23
:100E5C00FEE780B400AF00BFBD4680BC704780B4D5
:100E6C0000AF00BFBD4680BC704780B400AF00BF70
:100E7C00BD4680BC704780B500AF00F09BFB00BF47
:100E8C0080BD000080B500AF024801F0EBFA00BF56
:100E9C0080BD00BF1401002080B400AF00BFBD4670
:100EAC0080BC704780B483B000AF786039607B68D9
:100EBC00022B10DC3B680A4A82FB03129210DB17F0
:100ECC00D21A08497B6841F82320074A7B68002125
:100EDC0042F8231000E000BF0C37BD4680BC7047C1
:100EEC0067666666FC0000200801002080B483B0B1
:100EFC0000AF00237B601CE0124A7B6852F8233061
:100F0C00002B13DD0F4A7B6852F823305A1E0D4913
:100F1C007B6841F823200B4A7B6852F82330002B66
:100F2C0004D1094A7B68012142F823107B68013304
:100F3C007B607B68022BDFDD00BF00BF0C37BD463A
:100F4C0080BC7047FC0000200801002080B582B0F6
:100F5C0000AF78607B681B68B3F1804F03D1FFF75B
:100F6C003DFCFFF7C3FF00BF0837BD4680BD000046
:100F7C0080B500AF01222021104800F0D6FD0122DF
:100F8C0040210E4800F0D1FD012280210B4800F0D9
:100F9C00CCFD01224FF48071084800F0C6FD0122FF
:100FAC004FF40071054800F0C0FD01224FF4806140
:100FBC00024800F0BAFD00BF80BD00BF0008014030
:100FCC0080B584B000AFF860B9607A60FB68002B24
:100FDC0008D1BB68002B05D17B68002B02D1FFF731
:100FEC00C7FF1FE1FB68002B40F3E580BB68002BBB
:100FFC0040F3E1807B68002B40F3DD808B4B1B784A
:10100C00022B00F08F80022B00F30C81002B02D0FE
:10101C00012B44D006E100222021854800F085FDFB
:10102C0001224021824800F080FD0122802180486D
:10103C0000F07BFD7F4B1B68FA68D31A7E4A82FB5B
:10104C0003129210DB17D31ADBB219460020FFF7FC
:10105C006FFC784B1B68FA68D21A774B83FB021330
:10106C009910D317C91A0B469B000B445B00D11A7D
:10107C00CBB219460120FFF75BFC6E4B1B680133AA
:10108C006C4A13606B4B1B68FA689A4240F08D8077
:10109C00664B02221A70674B00221A6085E001220F
:1010AC002021634800F041FD00224021604800F0FF
:1010BC003CFD012280215E4800F037FD5D4B1B6832
:1010CC00BA68D31A5C4A82FB03129210DB17D31A4C
:1010DC00DBB219460020FFF72BFC564B1B68BA6895
:1010EC00D21A554B83FB02139910D317C91A0B460E
:1010FC009B000B445B00D11ACBB219460120FFF7C1
:10110C0017FC4C4B1B6801334A4A1360494B1B6854
:10111C00BA689A424BD1454B00221A70454B0022BB
:10112C001A6044E001222021414800F0FEFC01221B
:10113C0040213F4800F0F9FC002280213C4800F09F
:10114C00F4FC3C4B1B687A68D31A3B4A82FB0312B3
:10115C009210DB17D31ADBB219460020FFF7E8FB1D
:10116C00344B1B687A68D21A334B83FB02139910E9
:10117C00D317C91A0B469B000B445B00D11ACBB298
:10118C0019460120FFF7D4FB2A4B1B680133294A6F
:10119C001360284B1B687A689A420AD1234B0122B0
:1011AC001A70244B00221A6003E000BF3AE000BF23
:1011BC0038E000BF36E0FB68002B0ED10022202166
:1011CC001B4800F0B2FC01224021194800F0ADFC94
:1011DC0001228021164800F0A8FCBB68002B0ED120
:1011EC0001222021124800F0A0FC002240211048CE
:1011FC0000F09BFC012280210D4800F096FC7B68DE
:10120C00002B0FD101222021094800F08EFC012275
:10121C004021074800F089FC00228021044800F09E
:10122C0084FCFFE700BF1037BD4680BDF1000020F5
:10123C0000080140F40000206766666680B584B043
:10124C0000AFF860B9607A60FB68002B08D1BB680E
:10125C00002B05D17B68002B02D1FFF789FE31E111
:10126C00FB68002B40F3EE80BB68002B40F3EA8058
:10127C007B68002B40F3E680944B1B78022B00F02C
:10128C009580022B00F31E81002B02D0012B47D03E
:10129C0018E100224FF480718D4800F046FC0122C9
:1012AC004FF400718A4800F040FC01224FF4806139
:1012BC00874800F03AFC874B1B68FA68D31A864AB9
:1012CC0082FB03129210DB17D31ADBB219460220F1
:1012DC00FFF72EFB7F4B1B68FA68D21A7E4B83FB01
:1012EC0002139910D317C91A0B469B000B445B00D1
:1012FC00D11ACBB219460320FFF71AFB754B1B68AA
:10130C000133744A1360734B1B68FA689A4240F0BD
:10131C0093806E4B02221A706E4B00221A608BE087
:10132C0001224FF480716A4800F0FFFB00224FF459
:10133C000071674800F0F9FB01224FF480616448AA
:10134C0000F0F3FB634B1B68BA68D31A624A82FB4A
:10135C0003129210DB17D31ADBB219460220FFF7E7
:10136C00E7FA5C4B1B68BA68D21A5B4B83FB02131F
:10137C009910D317C91A0B469B000B445B00D11A6A
:10138C00CBB219460320FFF7D3FA524B1B6801333B
:10139C00504A13604F4B1B68BA689A424ED14B4B64
:1013AC0000221A704B4B00221A6047E001224FF4C6
:1013BC008071474800F0B9FB01224FF4007144489A
:1013CC0000F0B3FB00224FF48061414800F0ADFB0C
:1013DC00404B1B687A68D31A3F4A82FB0312921067
:1013EC00DB17D31ADBB219460220FFF7A1FA394BEF
:1013FC001B687A68D21A384B83FB02139910D317E7
:10140C00C91A0B469B000B445B00D11ACBB2194690
:10141C000320FFF78DFA2F4B1B6801332D4A136005
:10142C002C4B1B687A689A420AD1284B01221A70FD
:10143C00284B00221A6003E000BF43E000BF41E0EC
:10144C0000BF3FE0FB68002B11D100224FF48071EC
:10145C001F4800F06AFB01224FF400711C4800F099
:10146C0064FB01224FF48061194800F05EFBBB68FD
:10147C00002B11D101224FF48071154800F055FB5F
:10148C0000224FF40071124800F04FFB01224FF480
:10149C0080610F4800F049FB7B68002B12D10122C0
:1014AC004FF480710A4800F040FB01224FF40071A8
:1014BC00074800F03AFB00224FF48061044800F02A
:1014CC0034FBFFE700BF1037BD4680BD7400002021
:1014DC0000080140F8000020676666660C480D495C
:1014EC000D4A002302E0D458C4500433C4188C4273
:1014FC00F9D30A4A0A4C002301E013600432A242D9
:10150C00FBD3FFF7C9FC01F0F5FAFFF7C9FA7047F6
:10151C000000002080000020982B00088000002094
:10152C0060010020FEE7000080B500AF084B1B688F
:10153C00074A43F010031360032000F023F90F2037
:10154C0000F008F8FFF720FC0023184680BD00BF10
:10155C000020024080B582B000AF7860124B1A6850
:10156C00124B1B7819464FF47A73B3FBF1F3B2FBB1
:10157C00F3F3184600F03BF90346002B01D001238E
:10158C000EE07B680F2B0AD8002279684FF0FF30F1
:10159C0000F003F9064A7B681360002300E0012386
:1015AC0018460837BD4680BD700000207C00002026
:1015BC007800002080B400AF054B1B781A46054B11
:1015CC001B681344034A136000BFBD4680BC7047C0
:1015DC007C0000205C01002080B400AF024B1B6833
:1015EC001846BD4680BC70475C01002080B485B0B5
:1015FC0000AF78607B6803F00703FB600C4BDB6883
:10160C00BB60BA684FF6FF031340BB60FB681A025D
:10161C00BB68134343F0BF6343F40033BB60044A1D
:10162C00BB68D36000BF1437BD4680BC704700BF99
:10163C0000ED00E080B400AF044BDB681B0A03F044
:10164C0007031846BD4680BC704700BF00ED00E0A4
:10165C0080B483B000AF0346FB7197F90730002BC1
:10166C000BDBFB7903F01F02064997F907305B0986
:10167C00012000FA02F241F8232000BF0C37BD46CE
:10168C0080BC704700E100E080B483B000AF03463B
:10169C003960FB7197F90730002B0ADB3B68DAB233
:1016AC000C4997F907301201D2B20B4483F800238E
:1016BC000AE03B68DAB20849FB7903F00F03043BFC
:1016CC001201D2B20B441A7600BF0C37BD4680BC57
:1016DC00704700BF00E100E000ED00E080B489B08D
:1016EC0000AFF860B9607A60FB6803F00703FB6138
:1016FC00FB69C3F10703042B28BF0423BB61FB69FF
:10170C000433062B02D9FB69033B00E000237B6109
:10171C004FF0FF32BB6902FA03F3DA43BB681A409D
:10172C007B699A404FF0FF317B6901FA03F3D9438F
:10173C007B680B40134318462437BD4680BC70476A
:10174C0080B582B000AF78607B68013BB3F1807FDD
:10175C0001D301230FE00A4A7B68013B53600F2140
:10176C004FF0FF30FFF790FF054B00229A60044BBF
:10177C0007221A60002318460837BD4680BD00BFFB
:10178C0010E000E080B582B000AF78607868FFF7B9
:10179C002DFF00BF0837BD4680BD80B586B000AFB9
:1017AC000346B9607A60FB7300237B61FFF742FF4D
:1017BC0078617A68B9687869FFF790FF024697F903
:1017CC000F3011461846FFF75FFF00BF1837BD46B4
:1017DC0080BD80B582B000AF0346FB7197F907302E
:1017EC001846FFF735FF00BF0837BD4680BD80B5F2
:1017FC0082B000AF78607868FFF7A2FF0346184606
:10180C000837BD4680BD000080B48BB000AF786057
:10181C00396000237B6200233B6248E101227B6A32
:10182C0002FA03F3FB613B681B68FA691340BB6166
:10183C00BA69FB699A4240F037813B685B68A34AFE
:10184C0093425ED0A14A934275D8A14A934258D094
:10185C009F4A93426FD89F4A934252D09D4A9342DB
:10186C0069D89D4A93424CD09B4A934263D89B4A79
:10187C00934246D0994A93425DD8122B2AD8122B08
:10188C0059D801A252F823F00F190008E9180008E2
:10189C00FB1800083D1900084319000843190008FB
:1018AC00431900084319000843190008431900089C
:1018BC00431900084319000843190008431900088C
:1018CC00431900084319000843190008F1180008CF
:1018DC0005190008824A934213D02CE03B68DB6860
:1018EC003B6229E03B68DB6804333B6224E03B68E5
:1018FC00DB6808333B621FE03B68DB680C333B6200
:10190C001AE03B689B68002B02D104233B6213E076
:10191C003B689B68012B05D108233B627B68FA6905
:10192C001A6109E008233B627B68FA695A6103E09B
:10193C0000233B6200E000BFBB69FF2B01D87B6832
:10194C0001E07B6804337B61BB69FF2B02D87B6AA7
:10195C009B0002E07B6A083B9B003B617B691A6839
:10196C000F213B6901FA03F3DB431A40396A3B69E7
:10197C0001FA03F31A437B691A603B685B6803F056
:10198C008053002B00F09080564B9B69554A43F0D6
:10199C0001039361534B9B6903F00103BB60BB686C
:1019AC00514A7B6A9B08023352F82330FB607B6AF6
:1019BC0003F003039B000F2202FA03F3DB43FA68E4
:1019CC001340FB607B68494A93420DD07B68484AC0
:1019DC00934207D07B68474A934201D1022304E02B
:1019EC00032302E0012300E000237A6A02F00302E1
:1019FC0092009340FA681343FB603B497B6A9B0857
:101A0C000233FA6841F823203B685B6803F48033A7
:101A1C00002B06D0384B1A683749BB6913430B604F
:101A2C0006E0354B1A68BB69DB43334913400B6046
:101A3C003B685B6803F40033002B06D02E4B5A68CE
:101A4C002D49BB6913434B6006E02B4B5A68BB69AD
:101A5C00DB43294913404B603B685B6803F48013FC
:101A6C00002B06D0244B9A682349BB6913438B6027
:101A7C0006E0214B9A68BB69DB431F4913408B601E
:101A8C003B685B6803F40013002B06D01A4BDA6832
:101A9C001949BB691343CB6006E0174BDA68BB6985
:101AAC00DB4315491340CB607B6A01337B623B6897
:101ABC001A687B6A22FA03F3002B7FF4AFAE00BFE7
:101ACC0000BF2C37BD4680BC704700BF00003210F1
:101ADC000000311000002210000021100000121034
:101AEC0000001110001002400000014000080140ED
:101AFC00000C0140001001400004014080B485B08E
:101B0C0000AF78600B467B807B689A687B881340BB
:101B1C00002B02D00123FB7301E00023FB73FB7B42
:101B2C0018461437BD4680BC704780B483B000AFF4
:101B3C0078600B467B8013467B707B78002B03D040
:101B4C007A887B681A6103E07B881A047B681A61C7
:101B5C0000BF0C37BD4680BC7047000080B586B016
:101B6C0000AF78607B68002B01D101236CE27B68AD
:101B7C001B6803F00103002B00F08780924B5B681D
:101B8C0003F00C03042B0CD08F4B5B6803F00C039D
:101B9C00082B12D18C4B5B6803F48033B3F5803F78
:101BAC000BD1894B1B6803F40033002B6CD07B6882
:101BBC005B68002B68D1012346E27B685B68B3F558
:101BCC00803F06D1804B1B687F4A43F480331360FF
:101BDC002EE07B685B68002B0CD17B4B1B687A4A30
:101BEC0023F480331360784B1B68774A23F48023EB
:101BFC0013601DE07B685B68B3F5A02F0CD1724BB2
:101C0C001B68714A43F4802313606F4B1B686E4A48
:101C1C0043F4803313600BE06B4B1B686A4A23F46C
:101C2C0080331360684B1B68674A23F4802313606E
:101C3C007B685B68002B13D0FFF7CEFC386108E0A3
:101C4C00FFF7CAFC02463B69D31A642B01D9032364
:101C5C00FAE15D4B1B6803F40033002BF0D014E069
:101C6C00FFF7BAFC386108E0FFF7B6FC02463B69A7
:101C7C00D31A642B01D90323E6E1534B1B6803F4FD
:101C8C000033002BF0D100E000BF7B681B6803F031
:101C9C000203002B63D04C4B5B6803F00C03002B4E
:101CAC000BD0494B5B6803F00C03082B1CD1464B43
:101CBC005B6803F48033002B16D1434B1B6803F095
:101CCC000203002B05D07B681B69012B01D001237B
:101CDC00BAE13D4B1B6823F0F8027B685B69DB00C3
:101CEC00394913430B603AE07B681B69002B20D009
:101CFC00364B01221A60FFF76FFC386108E0FFF7E2
:101D0C006BFC02463B69D31A022B01D903239BE1DE
:101D1C002D4B1B6803F00203002BF0D02A4B1B68E1
:101D2C0023F0F8027B685B69DB00274913430B60E7
:101D3C0015E0264B00221A60FFF74EFC386108E0D4
:101D4C00FFF74AFC02463B69D31A022B01D9032345
:101D5C007AE11D4B1B6803F00203002BF0D17B686A
:101D6C001B6803F00803002B3AD07B689B69002B9F
:101D7C0019D0174B01221A60FFF72EFC386108E0CE
:101D8C00FFF72AFC02463B69D31A022B01D9032325
:101D9C005AE10D4B5B6A03F00203002BF0D00120DB
:101DAC0000F0A6FA1CE00A4B00221A60FFF714FCA4
:101DBC0038610FE0FFF710FC02463B69D31A022B87
:101DCC0008D9032340E100BF00100240000042424A
:101DDC00800442429E4B5B6A03F00203002BE9D164
:101DEC007B681B6803F00403002B00F0A680002323
:101DFC00FB75974BDB6903F08053002B0DD1944B93
:101E0C00DB69934A43F08053D361914BDB6903F058
:101E1C008053BB60BB680123FB758E4B1B6803F4BE
:101E2C008073002B18D18B4B1B688A4A43F4807348
:101E3C001360FFF7D1FB386108E0FFF7CDFB0246DA
:101E4C003B69D31A642B01D90323FDE0814B1B683A
:101E5C0003F48073002BF0D07B68DB68012B06D178
:101E6C007B4B1B6A7A4A43F0010313622DE07B68BB
:101E7C00DB68002B0CD1764B1B6A754A23F00103EF
:101E8C001362734B1B6A724A23F0040313621CE047
:101E9C007B68DB68052B0CD16D4B1B6A6C4A43F0DD
:101EAC00040313626A4B1B6A694A43F00103136211
:101EBC000BE0674B1B6A664A23F001031362644B09
:101ECC001B6A634A23F0040313627B68DB68002BF4
:101EDC0015D0FFF781FB38610AE0FFF77DFB024666
:101EEC003B69D31A41F28832934201D90323ABE008
:101EFC00574B1B6A03F00203002BEED014E0FFF7E4
:101F0C006BFB38610AE0FFF767FB02463B69D31AAB
:101F1C0041F28832934201D9032395E04C4B1B6A62
:101F2C0003F00203002BEED1FB7D012B05D1484BB6
:101F3C00DB69474A23F08053D3617B68DB69002B54
:101F4C0000F08180424B5B6803F00C03082B61D0DE
:101F5C007B68DB69022B46D13F4B00221A60FFF7EE
:101F6C003BFB386108E0FFF737FB02463B69D31AAD
:101F7C00022B01D9032367E0354B1B6803F0007378
:101F8C00002BF0D17B681B6AB3F5803F08D1304B36
:101F9C005B6823F400327B689B682D4913434B60CC
:101FAC002B4B5B6823F474127B68196A7B685B6A41
:101FBC000B43274913434B60274B01221A60FFF751
:101FCC000BFB386108E0FFF707FB02463B69D31AAD
:101FDC00022B01D9032337E01D4B1B6803F0007360
:101FEC00002BF0D02FE01C4B00221A60FFF7F4FA04
:101FFC00386108E0FFF7F0FA02463B69D31A022B6E
:10200C0001D9032320E0124B1B6803F00073002B53
:10201C00F0D118E07B68DB69012B01D1012313E0BF
:10202C000B4B5B68FB60FB6803F480327B681B6ABC
:10203C009A4206D1FB6803F470127B685B6A9A4281
:10204C0001D0012300E0002318461837BD4680BD9F
:10205C0000100240007000406000424280B584B025
:10206C0000AF786039607B68002B01D10123D0E090
:10207C006A4B1B6803F007033A689A4210D9674B06
:10208C001B6823F0070265493B6813430B60634BE5
:10209C001B6803F007033A689A4201D00123B8E0A9
:1020AC007B681B6803F00203002B20D07B681B6845
:1020BC0003F00403002B05D0594B5B68584A43F4DA
:1020CC00E06353607B681B6803F00803002B05D0AA
:1020DC00534B5B68524A43F460535360504B5B68FC
:1020EC0023F0F0027B689B684D4913434B607B687F
:1020FC001B6803F00103002B40D07B685B68012B4D
:10210C0007D1474B1B6803F40033002B15D1012377
:10211C007FE07B685B68022B07D1414B1B6803F0A7
:10212C000073002B09D1012373E03D4B1B6803F0B6
:10213C000203002B01D101236BE0394B5B6823F0C8
:10214C0003027B685B68364913434B60FFF744FA24
:10215C00F8600AE0FFF740FA0246FB68D31A41F236
:10216C008832934201D9032353E02D4B5B6803F073
:10217C000C027B685B689B009A42EBD1274B1B6877
:10218C0003F007033A689A4210D2244B1B6823F0E1
:10219C00070222493B6813430B60204B1B6803F07A
:1021AC0007033A689A4201D0012332E07B681B682E
:1021BC0003F00403002B08D0194B5B6823F4E06296
:1021CC007B68DB68164913434B607B681B6803F024
:1021DC000803002B09D0124B5B6823F460527B6818
:1021EC001B69DB000E4913434B6000F021F80246DB
:1021FC000B4B5B681B0903F00F030A49CB5C22FAFB
:10220C0003F3094A1360094B1B681846FFF7A2F940
:10221C00002318461037BD4680BD00BF0020024089
:10222C0000100240802B0008700000207800002075
:10223C0090B48AB000AF2A4B3C1D0FCB84E80F0042
:10224C0040F201233B800023FB610023BB61002390
:10225C007B6200237B6100233B62224B5B68FB614A
:10226C00FB6903F00C03042B02D0082B03D02DE0E8
:10227C001D4B3B622DE0FB699B0C03F00F0307F138
:10228C002802134413F8243C7B61FB6903F480336C
:10229C00002B13D0134B5B685B0C03F0010307F1AD
:1022AC002802134413F8283CBB617B690E4A02FBDD
:1022BC0003F2BB69B2FBF3F37B6204E07B690B4A6C
:1022CC0002FB03F37B627B6A3B6202E0064B3B62E0
:1022DC0000BF3B6A18462837BD4690BC704700BF0C
:1022EC00702B00080010024000127A0000093D001B
:1022FC0080B485B000AF78600A4B1B680A4AA2FB19
:10230C0003235B0A7A6802FB03F3FB6000BFFB68E4
:10231C005A1EFA60002BF9D100BF00BF1437BD461E
:10232C0080BC704770000020D34D621080B582B025
:10233C0000AF78607B68002B01D1012341E07B6802
:10234C0093F83D30DBB2002B06D17B68002283F87A
:10235C003C207868FEF74AFD7B68022283F83D201A
:10236C007B681A687B6804331946104600F06AFAD9
:10237C007B68012283F846207B68012283F83E208B
:10238C007B68012283F83F207B68012283F8402080
:10239C007B68012283F841207B68012283F842206C
:1023AC007B68012283F843207B68012283F8442058
:1023BC007B68012283F845207B68012283F83D204D
:1023CC00002318460837BD4680BD000080B485B098
:1023DC0000AF78607B6893F83D30DBB2012B01D005
:1023EC00012335E07B68022283F83D207B681B6863
:1023FC00DA687B681B6842F00102DA607B681B6854
:10240C00164A934209D07B681B68B3F1804F04D005
:10241C007B681B68124A934211D17B681B689B68CE
:10242C0003F00703FB60FB68062B10D07B681B686E
:10243C001A687B681B6842F001021A6007E07B682F
:10244C001B681A687B681B6842F001021A60002343
:10245C0018461437BD4680BC704700BF002C0140A5
:10246C000004004080B582B000AF78607B681B68C8
:10247C001B6903F00203022B22D17B681B68DB680B
:10248C0003F00203022B1BD17B681B686FF0020266
:10249C001A617B6801221A777B681B689B6903F0C1
:1024AC000303002B03D0786800F0B1F905E07868DD
:1024BC0000F0A4F9786800F0B3F97B6800221A7771
:1024CC007B681B681B6903F00403042B22D17B6817
:1024DC001B68DB6803F00403042B1BD17B681B68AF
:1024EC006FF004021A617B6802221A777B681B6802
:1024FC009B6903F44073002B03D0786800F087F9D4
:10250C0005E0786800F07AF9786800F089F97B6862
:10251C0000221A777B681B681B6903F00803082BE1
:10252C0022D17B681B68DB6803F00803082B1BD1E6
:10253C007B681B686FF008021A617B6804221A77AB
:10254C007B681B68DB6903F00303002B03D07868FE
:10255C0000F05DF905E0786800F050F9786800F05B
:10256C005FF97B6800221A777B681B681B6903F094
:10257C001003102B22D17B681B68DB6803F010035F
:10258C00102B1BD17B681B686FF010021A617B68E3
:10259C0008221A777B681B68DB6903F44073002BF5
:1025AC0003D0786800F033F905E0786800F026F97C
:1025BC00786800F035F97B6800221A777B681B6815
:1025CC001B6903F00103012B0ED17B681B68DB68D0
:1025DC0003F00103012B07D17B681B686FF001022C
:1025EC001A617868FEF7B2FC7B681B681B6903F004
:1025FC008003802B0ED17B681B68DB6803F08003A3
:10260C00802B07D17B681B686FF080021A61786899
:10261C0000F067FA7B681B681B6903F04003402BD2
:10262C000ED17B681B68DB6803F04003402B07D19D
:10263C007B681B686FF040021A61786800F0F9F84B
:10264C007B681B681B6903F02003202B0ED17B6871
:10265C001B68DB6803F02003202B07D17B681B6809
:10266C006FF020021A61786800F032FA00BF083768
:10267C00BD4680BD80B584B000AF786039607B68A2
:10268C0093F83C30012B01D10223B3E07B6801228B
:10269C0083F83C207B68022283F83D207B681B6812
:1026AC009B68FB60FB6823F07703FB60FB6823F4FB
:1026BC007F43FB607B681B68FA689A603B681B6809
:1026CC00B3F5005F3ED0B3F5005F00F28780B3F541
:1026DC00805F00F08580B3F5805F7FD8702B1AD0B7
:1026EC00702B7BD8602B50D0602B77D8502B3CD0E4
:1026FC00502B73D8402B58D0402B6FD8302B64D034
:10270C00302B6BD8202B60D0202B67D8002B5CD0C3
:10271C00102B5AD062E07B6818683B6899683B685C
:10272C005A683B68DB6800F05CF97B681B689B6847
:10273C00FB60FB6843F07703FB607B681B68FA68FF
:10274C009A604EE07B6818683B6899683B685A68E9
:10275C003B68DB6800F045F97B681B689A687B680E
:10276C001B6842F480429A603BE07B6818683B68C7
:10277C0059683B68DB681A4600F0BCF87B681B683C
:10278C005021184600F013F92BE07B6818683B6861
:10279C0059683B68DB681A4600F0DAF87B681B68FE
:1027AC006021184600F003F91BE07B6818683B6851
:1027BC0059683B68DB681A4600F09CF87B681B681C
:1027CC004021184600F0F3F80BE07B681A683B6870
:1027DC001B681946104600F0EAF802E000BF00E062
:1027EC0000BF7B68012283F83D207B68002283F8C0
:1027FC003C20002318461037BD4680BD80B483B002
:10280C0000AF786000BF0C37BD4680BC704780B409
:10281C0083B000AF786000BF0C37BD4680BC7047FA
:10282C0080B483B000AF786000BF0C37BD4680BC6D
:10283C00704780B483B000AF786000BF0C37BD46E2
:10284C0080BC704780B485B000AF786039607B681D
:10285C001B68FB607B68254A934207D07B68B3F109
:10286C00804F03D07B68224A934208D1FB6823F047
:10287C007003FB603B685B68FA681343FB607B6822
:10288C001A4A934207D07B68B3F1804F03D07B6820
:10289C00174A934208D1FB6823F44073FB603B68F2
:1028AC00DB68FA681343FB60FB6823F080023B682B
:1028BC005B691343FB607B68FA681A603B689A6833
:1028CC007B68DA623B681A687B689A627B68074AA5
:1028DC00934203D13B681A697B681A637B680122B7
:1028EC005A6100BF1437BD4680BC7047002C0140B4
:1028FC000004004080B487B000AFF860B9607A6023
:10290C00FB681B6A7B61FB681B6A23F00102FB6896
:10291C001A62FB689B693B613B6923F0F0033B61E6
:10292C007B681B013A6913433B617B6923F00A0303
:10293C007B617A69BB6813437B61FB683A699A6176
:10294C00FB687A691A6200BF1C37BD4680BC7047B1
:10295C0080B487B000AFF860B9607A60FB681B6A1E
:10296C0023F01002FB681A62FB689B697B61FB68B1
:10297C001B6A3B617B6923F470437B617B681B039F
:10298C007A6913437B613B6923F0A0033B61BB680D
:10299C001B013A6913433B61FB687A699A61FB68D6
:1029AC003A691A6200BF1C37BD4680BC704780B4C0
:1029BC0085B000AF786039607B689B68FB60FB6812
:1029CC0023F07003FB603A68FB68134343F0070382
:1029DC00FB607B68FA689A6000BF1437BD4680BC08
:1029EC00704780B487B000AFF860B9607A603B6024
:1029FC00FB689B687B617B6923F47F437B613B684D
:102A0C001A027B681A43BB6813437A6913437B61D0
:102A1C00FB687A699A6000BF1C37BD4680BC704762
:102A2C0080B485B000AF786039607B6893F83C3037
:102A3C00012B01D1022341E07B68012283F83C2069
:102A4C007B68022283F83D207B681B685B68FB6017
:102A5C007B681B689B68BB60FB6823F07003FB60A2
:102A6C003B681B68FA681343FB607B681B68FA6859
:102A7C005A607B681B68144A934209D07B681B68B8
:102A8C00B3F1804F04D07B681B68104A93420CD181
:102A9C00BB6823F08003BB603B685B68BA68134378
:102AAC00BB607B681B68BA689A607B68012283F8FC
:102ABC003D207B68002283F83C2000231846143705
:102ACC00BD4680BC704700BF002C01400004004094
:102ADC0080B483B000AF786000BF0C37BD4680BCBB
:102AEC00704780B483B000AF786000BF0C37BD4630
:102AFC0080BC704770B500260C4D0D4C641BA410A7
:102B0C00A64209D100F022F800260A4D0A4C641B9B
:102B1C00A410A64205D170BD55F8043B9847013668
:102B2C00EEE755F8043B98470136F2E7902B000886
:102B3C00902B0008902B0008942B000803460244AD
:102B4C00934200D1704703F8011BF9E7F8B500BFB9
:102B5C00F8BC08BC9E467047F8B500BFF8BC08BC72
:042B6C009E467047CA
:102B700002030405060708090A0B0C0D0E0F1010BE
:102B8000000000000000000001020304060708091D
:042B90003101000807
:042B94000D01000827
:102B9800010000000200000004000000080000001E
:102BA80000080140000801400008014000080140F9
:102BB8003F065B4F666D7D077F6F000010002000A9
:102BC80040008000000C0140000C0140000C014056
:102BD800000C014000020004000800100020004022
:102BE80000800000000C0140000C0140000C014076
:102BF800000C0140000C0140000C0140000C014099
:102C08000024F40002000000100000000100000091
:04000005080014E9F2
:00000001FF
